{
  "_format": "hh-sol-artifact-1",
  "contractName": "StakingV1",
  "sourceName": "contracts/StakingV1.sol",
  "abi": [
    {
      "inputs": [],
      "stateMutability": "nonpayable",
      "type": "constructor"
    },
    {
      "inputs": [],
      "name": "InvalidInitialization",
      "type": "error"
    },
    {
      "inputs": [],
      "name": "NotInitializing",
      "type": "error"
    },
    {
      "inputs": [
        {
          "internalType": "address",
          "name": "owner",
          "type": "address"
        }
      ],
      "name": "OwnableInvalidOwner",
      "type": "error"
    },
    {
      "inputs": [
        {
          "internalType": "address",
          "name": "account",
          "type": "address"
        }
      ],
      "name": "OwnableUnauthorizedAccount",
      "type": "error"
    },
    {
      "inputs": [],
      "name": "ReentrancyGuardReentrantCall",
      "type": "error"
    },
    {
      "inputs": [
        {
          "internalType": "address",
          "name": "token",
          "type": "address"
        }
      ],
      "name": "SafeERC20FailedOperation",
      "type": "error"
    },
    {
      "anonymous": false,
      "inputs": [
        {
          "indexed": false,
          "internalType": "uint64",
          "name": "version",
          "type": "uint64"
        }
      ],
      "name": "Initialized",
      "type": "event"
    },
    {
      "anonymous": false,
      "inputs": [
        {
          "indexed": true,
          "internalType": "address",
          "name": "previousOwner",
          "type": "address"
        },
        {
          "indexed": true,
          "internalType": "address",
          "name": "newOwner",
          "type": "address"
        }
      ],
      "name": "OwnershipTransferred",
      "type": "event"
    },
    {
      "anonymous": false,
      "inputs": [
        {
          "indexed": true,
          "internalType": "address",
          "name": "user",
          "type": "address"
        },
        {
          "indexed": false,
          "internalType": "uint256",
          "name": "amount",
          "type": "uint256"
        },
        {
          "indexed": false,
          "internalType": "uint256",
          "name": "stakeId",
          "type": "uint256"
        }
      ],
      "name": "Staked",
      "type": "event"
    },
    {
      "anonymous": false,
      "inputs": [
        {
          "indexed": true,
          "internalType": "address",
          "name": "user",
          "type": "address"
        },
        {
          "indexed": false,
          "internalType": "uint256",
          "name": "amount",
          "type": "uint256"
        },
        {
          "indexed": false,
          "internalType": "uint256",
          "name": "stakeId",
          "type": "uint256"
        }
      ],
      "name": "Withdrawn",
      "type": "event"
    },
    {
      "inputs": [
        {
          "internalType": "address",
          "name": "_staker",
          "type": "address"
        },
        {
          "internalType": "uint256",
          "name": "_stakeId",
          "type": "uint256"
        }
      ],
      "name": "canWithdraw",
      "outputs": [
        {
          "internalType": "bool",
          "name": "",
          "type": "bool"
        }
      ],
      "stateMutability": "view",
      "type": "function"
    },
    {
      "inputs": [
        {
          "internalType": "address",
          "name": "_staker",
          "type": "address"
        }
      ],
      "name": "getActiveStakesCount",
      "outputs": [
        {
          "internalType": "uint256",
          "name": "",
          "type": "uint256"
        }
      ],
      "stateMutability": "view",
      "type": "function"
    },
    {
      "inputs": [
        {
          "internalType": "address",
          "name": "_staker",
          "type": "address"
        }
      ],
      "name": "getAllStakes",
      "outputs": [
        {
          "components": [
            {
              "internalType": "uint256",
              "name": "amount",
              "type": "uint256"
            },
            {
              "internalType": "uint256",
              "name": "timestamp",
              "type": "uint256"
            }
          ],
          "internalType": "struct StakingV1.Stake[]",
          "name": "",
          "type": "tuple[]"
        }
      ],
      "stateMutability": "view",
      "type": "function"
    },
    {
      "inputs": [
        {
          "internalType": "address",
          "name": "_staker",
          "type": "address"
        },
        {
          "internalType": "uint256",
          "name": "_stakeId",
          "type": "uint256"
        }
      ],
      "name": "getStakeInfo",
      "outputs": [
        {
          "internalType": "uint256",
          "name": "amount",
          "type": "uint256"
        },
        {
          "internalType": "uint256",
          "name": "timestamp",
          "type": "uint256"
        }
      ],
      "stateMutability": "view",
      "type": "function"
    },
    {
      "inputs": [
        {
          "internalType": "address",
          "name": "_stakingToken",
          "type": "address"
        }
      ],
      "name": "initialize",
      "outputs": [],
      "stateMutability": "nonpayable",
      "type": "function"
    },
    {
      "inputs": [],
      "name": "lockPeriod",
      "outputs": [
        {
          "internalType": "uint256",
          "name": "",
          "type": "uint256"
        }
      ],
      "stateMutability": "view",
      "type": "function"
    },
    {
      "inputs": [],
      "name": "owner",
      "outputs": [
        {
          "internalType": "address",
          "name": "",
          "type": "address"
        }
      ],
      "stateMutability": "view",
      "type": "function"
    },
    {
      "inputs": [],
      "name": "renounceOwnership",
      "outputs": [],
      "stateMutability": "nonpayable",
      "type": "function"
    },
    {
      "inputs": [
        {
          "internalType": "uint256",
          "name": "_amount",
          "type": "uint256"
        }
      ],
      "name": "stake",
      "outputs": [],
      "stateMutability": "nonpayable",
      "type": "function"
    },
    {
      "inputs": [],
      "name": "stakingToken",
      "outputs": [
        {
          "internalType": "contract IERC20",
          "name": "",
          "type": "address"
        }
      ],
      "stateMutability": "view",
      "type": "function"
    },
    {
      "inputs": [
        {
          "internalType": "address",
          "name": "newOwner",
          "type": "address"
        }
      ],
      "name": "transferOwnership",
      "outputs": [],
      "stateMutability": "nonpayable",
      "type": "function"
    },
    {
      "inputs": [
        {
          "internalType": "address",
          "name": "",
          "type": "address"
        },
        {
          "internalType": "uint256",
          "name": "",
          "type": "uint256"
        }
      ],
      "name": "userStakes",
      "outputs": [
        {
          "internalType": "uint256",
          "name": "amount",
          "type": "uint256"
        },
        {
          "internalType": "uint256",
          "name": "timestamp",
          "type": "uint256"
        }
      ],
      "stateMutability": "view",
      "type": "function"
    },
    {
      "inputs": [
        {
          "internalType": "uint256",
          "name": "_stakeId",
          "type": "uint256"
        }
      ],
      "name": "withdraw",
      "outputs": [],
      "stateMutability": "nonpayable",
      "type": "function"
    }
  ],
  "bytecode": "0x608060405234801561001057600080fd5b5061001f61002460201b60201c565b61018e565b600061003461012860201b60201c565b90508060000160089054906101000a900460ff161561007f576040517ff92ee8a900000000000000000000000000000000000000000000000000000000815260040160405180910390fd5b67ffffffffffffffff80168160000160009054906101000a900467ffffffffffffffff1667ffffffffffffffff16146101255767ffffffffffffffff8160000160006101000a81548167ffffffffffffffff021916908367ffffffffffffffff1602179055507fc7f505b2f371ae2175ee4913f4499e1f2633a7b5936321eed1cdaeb6115181d267ffffffffffffffff60405161011c9190610173565b60405180910390a15b50565b60007ff0c57e16840df040f15088dc2f81fe391c3923bec73e23a9662efc9c229c6a00905090565b600067ffffffffffffffff82169050919050565b61016d81610150565b82525050565b60006020820190506101886000830184610164565b92915050565b6119e88061019d6000396000f3fe608060405234801561001057600080fd5b50600436106100cf5760003560e01c80638da5cb5b1161008c578063c4d66de811610066578063c4d66de814610202578063e2ab7cf21461021e578063f2fde38b1461024e578063f480ff5b1461026a576100cf565b80638da5cb5b14610197578063a694fc3a146101b5578063b5d5b5fa146101d1576100cf565b806304238994146100d45780632e1a7d4d146101045780633b521efe146101205780633fd8b02f14610151578063715018a61461016f57806372f702f314610179575b600080fd5b6100ee60048036038101906100e9919061130d565b61029a565b6040516100fb9190611431565b60405180910390f35b61011e6004803603810190610119919061147f565b61034c565b005b61013a600480360381019061013591906114ac565b610591565b6040516101489291906114fb565b60405180910390f35b6101596106b0565b6040516101669190611524565b60405180910390f35b6101776106b6565b005b6101816106ca565b60405161018e919061159e565b60405180910390f35b61019f6106ee565b6040516101ac91906115c8565b60405180910390f35b6101cf60048036038101906101ca919061147f565b610726565b005b6101eb60048036038101906101e691906114ac565b6108fa565b6040516101f99291906114fb565b60405180910390f35b61021c6004803603810190610217919061130d565b61093b565b005b610238600480360381019061023391906114ac565b610b1c565b60405161024591906115fe565b60405180910390f35b6102686004803603810190610263919061130d565b610c21565b005b610284600480360381019061027f919061130d565b610ca7565b6040516102919190611524565b60405180910390f35b6060600260008373ffffffffffffffffffffffffffffffffffffffff1673ffffffffffffffffffffffffffffffffffffffff168152602001908152602001600020805480602002602001604051908101604052809291908181526020016000905b82821015610341578382906000526020600020906002020160405180604001604052908160008201548152602001600182015481525050815260200190600101906102fb565b505050509050919050565b610354610d8c565b600260003373ffffffffffffffffffffffffffffffffffffffff1673ffffffffffffffffffffffffffffffffffffffff1681526020019081526020016000208054905081106103d8576040517f08c379a00000000000000000000000000000000000000000000000000000000081526004016103cf90611676565b60405180910390fd5b6000600260003373ffffffffffffffffffffffffffffffffffffffff1673ffffffffffffffffffffffffffffffffffffffff168152602001908152602001600020828154811061042b5761042a611696565b5b906000526020600020906002020190506000816000015411610482576040517f08c379a000000000000000000000000000000000000000000000000000000000815260040161047990611711565b60405180910390fd5b60015481600101546104949190611760565b4210156104d6576040517f08c379a00000000000000000000000000000000000000000000000000000000081526004016104cd906117e0565b60405180910390fd5b60008160000154905060008260000181905550610534338260008054906101000a900473ffffffffffffffffffffffffffffffffffffffff1673ffffffffffffffffffffffffffffffffffffffff16610de39092919063ffffffff16565b3373ffffffffffffffffffffffffffffffffffffffff167f92ccf450a286a957af52509bc1c9939d1a6a481783e142e41e2499f0bb66ebc6828560405161057c9291906114fb565b60405180910390a2505061058e610e62565b50565b600080600260008573ffffffffffffffffffffffffffffffffffffffff1673ffffffffffffffffffffffffffffffffffffffff168152602001908152602001600020805490508310610618576040517f08c379a000000000000000000000000000000000000000000000000000000000815260040161060f90611676565b60405180910390fd5b6000600260008673ffffffffffffffffffffffffffffffffffffffff1673ffffffffffffffffffffffffffffffffffffffff168152602001908152602001600020848154811061066b5761066a611696565b5b90600052602060002090600202016040518060400160405290816000820154815260200160018201548152505090508060000151816020015192509250509250929050565b60015481565b6106be610e7b565b6106c86000610f02565b565b60008054906101000a900473ffffffffffffffffffffffffffffffffffffffff1681565b6000806106f9610fd9565b90508060000160009054906101000a900473ffffffffffffffffffffffffffffffffffffffff1691505090565b61072e610d8c565b60008111610771576040517f08c379a00000000000000000000000000000000000000000000000000000000081526004016107689061184c565b60405180910390fd5b6107be33308360008054906101000a900473ffffffffffffffffffffffffffffffffffffffff1673ffffffffffffffffffffffffffffffffffffffff16611001909392919063ffffffff16565b600260003373ffffffffffffffffffffffffffffffffffffffff1673ffffffffffffffffffffffffffffffffffffffff1681526020019081526020016000206040518060400160405280838152602001428152509080600181540180825580915050600190039060005260206000209060020201600090919091909150600082015181600001556020820151816001015550503373ffffffffffffffffffffffffffffffffffffffff167f1449c6dd7851abc30abf37f57715f492010519147cc2652fbc38202c18a6ee90826001600260003373ffffffffffffffffffffffffffffffffffffffff1673ffffffffffffffffffffffffffffffffffffffff168152602001908152602001600020805490506108d9919061186c565b6040516108e79291906114fb565b60405180910390a26108f7610e62565b50565b6002602052816000526040600020818154811061091657600080fd5b9060005260206000209060020201600091509150508060000154908060010154905082565b6000610945611083565b905060008160000160089054906101000a900460ff1615905060008260000160009054906101000a900467ffffffffffffffff1690506000808267ffffffffffffffff161480156109935750825b9050600060018367ffffffffffffffff161480156109c8575060003073ffffffffffffffffffffffffffffffffffffffff163b145b9050811580156109d6575080155b15610a0d576040517ff92ee8a900000000000000000000000000000000000000000000000000000000815260040160405180910390fd5b60018560000160006101000a81548167ffffffffffffffff021916908367ffffffffffffffff1602179055508315610a5d5760018560000160086101000a81548160ff0219169083151502179055505b610a66336110ab565b610a6e6110bf565b856000806101000a81548173ffffffffffffffffffffffffffffffffffffffff021916908373ffffffffffffffffffffffffffffffffffffffff16021790555062093a806001819055508315610b145760008560000160086101000a81548160ff0219169083151502179055507fc7f505b2f371ae2175ee4913f4499e1f2633a7b5936321eed1cdaeb6115181d26001604051610b0b91906118ef565b60405180910390a15b505050505050565b6000600260008473ffffffffffffffffffffffffffffffffffffffff1673ffffffffffffffffffffffffffffffffffffffff168152602001908152602001600020805490508210610b705760009050610c1b565b6000600260008573ffffffffffffffffffffffffffffffffffffffff1673ffffffffffffffffffffffffffffffffffffffff1681526020019081526020016000208381548110610bc357610bc2611696565b5b906000526020600020906002020160405180604001604052908160008201548152602001600182015481525050905060008160000151118015610c1757506001548160200151610c139190611760565b4210155b9150505b92915050565b610c29610e7b565b600073ffffffffffffffffffffffffffffffffffffffff168173ffffffffffffffffffffffffffffffffffffffff1603610c9b5760006040517f1e4fbdf7000000000000000000000000000000000000000000000000000000008152600401610c9291906115c8565b60405180910390fd5b610ca481610f02565b50565b6000806000905060005b600260008573ffffffffffffffffffffffffffffffffffffffff1673ffffffffffffffffffffffffffffffffffffffff16815260200190815260200160002080549050811015610d82576000600260008673ffffffffffffffffffffffffffffffffffffffff1673ffffffffffffffffffffffffffffffffffffffff1681526020019081526020016000208281548110610d4e57610d4d611696565b5b9060005260206000209060020201600001541115610d75578180610d719061190a565b9250505b8080600101915050610cb1565b5080915050919050565b6000610d966110d1565b90506002816000015403610dd6576040517f3ee5aeb500000000000000000000000000000000000000000000000000000000815260040160405180910390fd5b6002816000018190555050565b610e5d838473ffffffffffffffffffffffffffffffffffffffff1663a9059cbb8585604051602401610e16929190611952565b604051602081830303815290604052915060e01b6020820180517bffffffffffffffffffffffffffffffffffffffffffffffffffffffff83818316178352505050506110f9565b505050565b6000610e6c6110d1565b90506001816000018190555050565b610e8361119b565b73ffffffffffffffffffffffffffffffffffffffff16610ea16106ee565b73ffffffffffffffffffffffffffffffffffffffff1614610f0057610ec461119b565b6040517f118cdaa7000000000000000000000000000000000000000000000000000000008152600401610ef791906115c8565b60405180910390fd5b565b6000610f0c610fd9565b905060008160000160009054906101000a900473ffffffffffffffffffffffffffffffffffffffff169050828260000160006101000a81548173ffffffffffffffffffffffffffffffffffffffff021916908373ffffffffffffffffffffffffffffffffffffffff1602179055508273ffffffffffffffffffffffffffffffffffffffff168173ffffffffffffffffffffffffffffffffffffffff167f8be0079c531659141344cd1fd0a4f28419497f9722a3daafe3b4186f6b6457e060405160405180910390a3505050565b60007f9016d09d72d40fdae2fd8ceac6b6234c7706214fd39c1cd1e609a0528c199300905090565b61107d848573ffffffffffffffffffffffffffffffffffffffff166323b872dd8686866040516024016110369392919061197b565b604051602081830303815290604052915060e01b6020820180517bffffffffffffffffffffffffffffffffffffffffffffffffffffffff83818316178352505050506110f9565b50505050565b60007ff0c57e16840df040f15088dc2f81fe391c3923bec73e23a9662efc9c229c6a00905090565b6110b36111a3565b6110bc816111e3565b50565b6110c76111a3565b6110cf611269565b565b60007f9b779b17422d0df92223018b32b4d1fa46e071723d6817e2486d003becc55f00905090565b600080602060008451602086016000885af18061111c576040513d6000823e3d81fd5b3d925060005191505060008214611137576001811415611153565b60008473ffffffffffffffffffffffffffffffffffffffff163b145b1561119557836040517f5274afe700000000000000000000000000000000000000000000000000000000815260040161118c91906115c8565b60405180910390fd5b50505050565b600033905090565b6111ab61128a565b6111e1576040517fd7e6bcf800000000000000000000000000000000000000000000000000000000815260040160405180910390fd5b565b6111eb6111a3565b600073ffffffffffffffffffffffffffffffffffffffff168173ffffffffffffffffffffffffffffffffffffffff160361125d5760006040517f1e4fbdf700000000000000000000000000000000000000000000000000000000815260040161125491906115c8565b60405180910390fd5b61126681610f02565b50565b6112716111a3565b600061127b6110d1565b90506001816000018190555050565b6000611294611083565b60000160089054906101000a900460ff16905090565b600080fd5b600073ffffffffffffffffffffffffffffffffffffffff82169050919050565b60006112da826112af565b9050919050565b6112ea816112cf565b81146112f557600080fd5b50565b600081359050611307816112e1565b92915050565b600060208284031215611323576113226112aa565b5b6000611331848285016112f8565b91505092915050565b600081519050919050565b600082825260208201905092915050565b6000819050602082019050919050565b6000819050919050565b61137981611366565b82525050565b6040820160008201516113956000850182611370565b5060208201516113a86020850182611370565b50505050565b60006113ba838361137f565b60408301905092915050565b6000602082019050919050565b60006113de8261133a565b6113e88185611345565b93506113f383611356565b8060005b8381101561142457815161140b88826113ae565b9750611416836113c6565b9250506001810190506113f7565b5085935050505092915050565b6000602082019050818103600083015261144b81846113d3565b905092915050565b61145c81611366565b811461146757600080fd5b50565b60008135905061147981611453565b92915050565b600060208284031215611495576114946112aa565b5b60006114a38482850161146a565b91505092915050565b600080604083850312156114c3576114c26112aa565b5b60006114d1858286016112f8565b92505060206114e28582860161146a565b9150509250929050565b6114f581611366565b82525050565b600060408201905061151060008301856114ec565b61151d60208301846114ec565b9392505050565b600060208201905061153960008301846114ec565b92915050565b6000819050919050565b600061156461155f61155a846112af565b61153f565b6112af565b9050919050565b600061157682611549565b9050919050565b60006115888261156b565b9050919050565b6115988161157d565b82525050565b60006020820190506115b3600083018461158f565b92915050565b6115c2816112cf565b82525050565b60006020820190506115dd60008301846115b9565b92915050565b60008115159050919050565b6115f8816115e3565b82525050565b600060208201905061161360008301846115ef565b92915050565b600082825260208201905092915050565b7f496e76616c6964207374616b6520494400000000000000000000000000000000600082015250565b6000611660601083611619565b915061166b8261162a565b602082019050919050565b6000602082019050818103600083015261168f81611653565b9050919050565b7f4e487b7100000000000000000000000000000000000000000000000000000000600052603260045260246000fd5b7f5374616b6520616c72656164792077697468647261776e000000000000000000600082015250565b60006116fb601783611619565b9150611706826116c5565b602082019050919050565b6000602082019050818103600083015261172a816116ee565b9050919050565b7f4e487b7100000000000000000000000000000000000000000000000000000000600052601160045260246000fd5b600061176b82611366565b915061177683611366565b925082820190508082111561178e5761178d611731565b5b92915050565b7f4c6f636b20706572696f64206e6f7420656e6465640000000000000000000000600082015250565b60006117ca601583611619565b91506117d582611794565b602082019050919050565b600060208201905081810360008301526117f9816117bd565b9050919050565b7f43616e6e6f74207374616b652030000000000000000000000000000000000000600082015250565b6000611836600e83611619565b915061184182611800565b602082019050919050565b6000602082019050818103600083015261186581611829565b9050919050565b600061187782611366565b915061188283611366565b925082820390508181111561189a57611899611731565b5b92915050565b6000819050919050565b600067ffffffffffffffff82169050919050565b60006118d96118d46118cf846118a0565b61153f565b6118aa565b9050919050565b6118e9816118be565b82525050565b600060208201905061190460008301846118e0565b92915050565b600061191582611366565b91507fffffffffffffffffffffffffffffffffffffffffffffffffffffffffffffffff820361194757611946611731565b5b600182019050919050565b600060408201905061196760008301856115b9565b61197460208301846114ec565b9392505050565b600060608201905061199060008301866115b9565b61199d60208301856115b9565b6119aa60408301846114ec565b94935050505056fea2646970667358221220330928036e56a5b8670b01278c121ffdcdcb8f009c9b1e32eb5ac394fb112b6364736f6c634300081c0033",
  "linkReferences": {},
  "deployedLinkReferences": {}
}