{
  "_format": "hh-sol-artifact-1",
  "contractName": "StakingV1",
  "sourceName": "contracts/StakingV1.sol",
  "abi": [
    {
      "inputs": [],
      "stateMutability": "nonpayable",
      "type": "constructor"
    },
    {
      "inputs": [
        {
          "internalType": "address",
          "name": "target",
          "type": "address"
        }
      ],
      "name": "AddressEmptyCode",
      "type": "error"
    },
    {
      "inputs": [
        {
          "internalType": "address",
          "name": "implementation",
          "type": "address"
        }
      ],
      "name": "ERC1967InvalidImplementation",
      "type": "error"
    },
    {
      "inputs": [],
      "name": "ERC1967NonPayable",
      "type": "error"
    },
    {
      "inputs": [],
      "name": "FailedCall",
      "type": "error"
    },
    {
      "inputs": [],
      "name": "InvalidInitialization",
      "type": "error"
    },
    {
      "inputs": [],
      "name": "NotInitializing",
      "type": "error"
    },
    {
      "inputs": [
        {
          "internalType": "address",
          "name": "owner",
          "type": "address"
        }
      ],
      "name": "OwnableInvalidOwner",
      "type": "error"
    },
    {
      "inputs": [
        {
          "internalType": "address",
          "name": "account",
          "type": "address"
        }
      ],
      "name": "OwnableUnauthorizedAccount",
      "type": "error"
    },
    {
      "inputs": [],
      "name": "ReentrancyGuardReentrantCall",
      "type": "error"
    },
    {
      "inputs": [
        {
          "internalType": "address",
          "name": "token",
          "type": "address"
        }
      ],
      "name": "SafeERC20FailedOperation",
      "type": "error"
    },
    {
      "inputs": [],
      "name": "UUPSUnauthorizedCallContext",
      "type": "error"
    },
    {
      "inputs": [
        {
          "internalType": "bytes32",
          "name": "slot",
          "type": "bytes32"
        }
      ],
      "name": "UUPSUnsupportedProxiableUUID",
      "type": "error"
    },
    {
      "anonymous": false,
      "inputs": [
        {
          "indexed": false,
          "internalType": "uint64",
          "name": "version",
          "type": "uint64"
        }
      ],
      "name": "Initialized",
      "type": "event"
    },
    {
      "anonymous": false,
      "inputs": [
        {
          "indexed": true,
          "internalType": "address",
          "name": "previousOwner",
          "type": "address"
        },
        {
          "indexed": true,
          "internalType": "address",
          "name": "newOwner",
          "type": "address"
        }
      ],
      "name": "OwnershipTransferStarted",
      "type": "event"
    },
    {
      "anonymous": false,
      "inputs": [
        {
          "indexed": true,
          "internalType": "address",
          "name": "previousOwner",
          "type": "address"
        },
        {
          "indexed": true,
          "internalType": "address",
          "name": "newOwner",
          "type": "address"
        }
      ],
      "name": "OwnershipTransferred",
      "type": "event"
    },
    {
      "anonymous": false,
      "inputs": [
        {
          "indexed": false,
          "internalType": "address",
          "name": "account",
          "type": "address"
        }
      ],
      "name": "Paused",
      "type": "event"
    },
    {
      "anonymous": false,
      "inputs": [
        {
          "indexed": true,
          "internalType": "address",
          "name": "user",
          "type": "address"
        },
        {
          "indexed": false,
          "internalType": "uint256",
          "name": "amount",
          "type": "uint256"
        }
      ],
      "name": "RewardsClaimed",
      "type": "event"
    },
    {
      "anonymous": false,
      "inputs": [
        {
          "indexed": true,
          "internalType": "address",
          "name": "user",
          "type": "address"
        },
        {
          "indexed": false,
          "internalType": "uint256",
          "name": "amount",
          "type": "uint256"
        },
        {
          "indexed": false,
          "internalType": "uint256",
          "name": "stakeId",
          "type": "uint256"
        }
      ],
      "name": "Staked",
      "type": "event"
    },
    {
      "anonymous": false,
      "inputs": [
        {
          "indexed": false,
          "internalType": "address",
          "name": "account",
          "type": "address"
        }
      ],
      "name": "Unpaused",
      "type": "event"
    },
    {
      "anonymous": false,
      "inputs": [
        {
          "indexed": true,
          "internalType": "address",
          "name": "implementation",
          "type": "address"
        }
      ],
      "name": "Upgraded",
      "type": "event"
    },
    {
      "anonymous": false,
      "inputs": [
        {
          "indexed": true,
          "internalType": "address",
          "name": "user",
          "type": "address"
        },
        {
          "indexed": false,
          "internalType": "uint256",
          "name": "amount",
          "type": "uint256"
        },
        {
          "indexed": false,
          "internalType": "uint256",
          "name": "stakeId",
          "type": "uint256"
        }
      ],
      "name": "Withdrawn",
      "type": "event"
    },
    {
      "inputs": [],
      "name": "REWARD_PRECISION",
      "outputs": [
        {
          "internalType": "uint256",
          "name": "",
          "type": "uint256"
        }
      ],
      "stateMutability": "view",
      "type": "function"
    },
    {
      "inputs": [],
      "name": "REWARD_RATE",
      "outputs": [
        {
          "internalType": "uint256",
          "name": "",
          "type": "uint256"
        }
      ],
      "stateMutability": "view",
      "type": "function"
    },
    {
      "inputs": [],
      "name": "UPGRADE_INTERFACE_VERSION",
      "outputs": [
        {
          "internalType": "string",
          "name": "",
          "type": "string"
        }
      ],
      "stateMutability": "view",
      "type": "function"
    },
    {
      "inputs": [],
      "name": "acceptOwnership",
      "outputs": [],
      "stateMutability": "nonpayable",
      "type": "function"
    },
    {
      "inputs": [
        {
          "internalType": "address",
          "name": "_staker",
          "type": "address"
        },
        {
          "internalType": "uint256",
          "name": "_stakeId",
          "type": "uint256"
        }
      ],
      "name": "canWithdraw",
      "outputs": [
        {
          "internalType": "bool",
          "name": "",
          "type": "bool"
        }
      ],
      "stateMutability": "view",
      "type": "function"
    },
    {
      "inputs": [],
      "name": "claimRewards",
      "outputs": [],
      "stateMutability": "nonpayable",
      "type": "function"
    },
    {
      "inputs": [
        {
          "internalType": "address",
          "name": "_staker",
          "type": "address"
        }
      ],
      "name": "getActiveStakesCount",
      "outputs": [
        {
          "internalType": "uint256",
          "name": "",
          "type": "uint256"
        }
      ],
      "stateMutability": "view",
      "type": "function"
    },
    {
      "inputs": [
        {
          "internalType": "address",
          "name": "_staker",
          "type": "address"
        }
      ],
      "name": "getAllStakes",
      "outputs": [
        {
          "components": [
            {
              "internalType": "uint256",
              "name": "amount",
              "type": "uint256"
            },
            {
              "internalType": "uint256",
              "name": "timestamp",
              "type": "uint256"
            },
            {
              "internalType": "uint256",
              "name": "rewardDebt",
              "type": "uint256"
            }
          ],
          "internalType": "struct StakingV1.Stake[]",
          "name": "",
          "type": "tuple[]"
        }
      ],
      "stateMutability": "view",
      "type": "function"
    },
    {
      "inputs": [
        {
          "internalType": "address",
          "name": "_staker",
          "type": "address"
        },
        {
          "internalType": "uint256",
          "name": "_stakeId",
          "type": "uint256"
        }
      ],
      "name": "getStakeInfo",
      "outputs": [
        {
          "internalType": "uint256",
          "name": "amount",
          "type": "uint256"
        },
        {
          "internalType": "uint256",
          "name": "timestamp",
          "type": "uint256"
        }
      ],
      "stateMutability": "view",
      "type": "function"
    },
    {
      "inputs": [
        {
          "internalType": "address",
          "name": "_user",
          "type": "address"
        }
      ],
      "name": "getUserAccruedRewards",
      "outputs": [
        {
          "internalType": "uint256",
          "name": "",
          "type": "uint256"
        }
      ],
      "stateMutability": "view",
      "type": "function"
    },
    {
      "inputs": [
        {
          "internalType": "address",
          "name": "_stakingToken",
          "type": "address"
        }
      ],
      "name": "initialize",
      "outputs": [],
      "stateMutability": "nonpayable",
      "type": "function"
    },
    {
      "inputs": [],
      "name": "lockPeriod",
      "outputs": [
        {
          "internalType": "uint256",
          "name": "",
          "type": "uint256"
        }
      ],
      "stateMutability": "view",
      "type": "function"
    },
    {
      "inputs": [],
      "name": "owner",
      "outputs": [
        {
          "internalType": "address",
          "name": "",
          "type": "address"
        }
      ],
      "stateMutability": "view",
      "type": "function"
    },
    {
      "inputs": [],
      "name": "pause",
      "outputs": [],
      "stateMutability": "nonpayable",
      "type": "function"
    },
    {
      "inputs": [],
      "name": "paused",
      "outputs": [
        {
          "internalType": "bool",
          "name": "",
          "type": "bool"
        }
      ],
      "stateMutability": "view",
      "type": "function"
    },
    {
      "inputs": [],
      "name": "pendingOwner",
      "outputs": [
        {
          "internalType": "address",
          "name": "",
          "type": "address"
        }
      ],
      "stateMutability": "view",
      "type": "function"
    },
    {
      "inputs": [],
      "name": "proxiableUUID",
      "outputs": [
        {
          "internalType": "bytes32",
          "name": "",
          "type": "bytes32"
        }
      ],
      "stateMutability": "view",
      "type": "function"
    },
    {
      "inputs": [],
      "name": "renounceOwnership",
      "outputs": [],
      "stateMutability": "nonpayable",
      "type": "function"
    },
    {
      "inputs": [
        {
          "internalType": "uint256",
          "name": "_amount",
          "type": "uint256"
        }
      ],
      "name": "stake",
      "outputs": [],
      "stateMutability": "nonpayable",
      "type": "function"
    },
    {
      "inputs": [],
      "name": "stakingToken",
      "outputs": [
        {
          "internalType": "contract IERC20",
          "name": "",
          "type": "address"
        }
      ],
      "stateMutability": "view",
      "type": "function"
    },
    {
      "inputs": [
        {
          "internalType": "address",
          "name": "newOwner",
          "type": "address"
        }
      ],
      "name": "transferOwnership",
      "outputs": [],
      "stateMutability": "nonpayable",
      "type": "function"
    },
    {
      "inputs": [
        {
          "internalType": "address",
          "name": "",
          "type": "address"
        }
      ],
      "name": "unclaimedRewards",
      "outputs": [
        {
          "internalType": "uint256",
          "name": "",
          "type": "uint256"
        }
      ],
      "stateMutability": "view",
      "type": "function"
    },
    {
      "inputs": [],
      "name": "unpause",
      "outputs": [],
      "stateMutability": "nonpayable",
      "type": "function"
    },
    {
      "inputs": [
        {
          "internalType": "uint256",
          "name": "_newLockPeriod",
          "type": "uint256"
        }
      ],
      "name": "updateLockPeriod",
      "outputs": [],
      "stateMutability": "nonpayable",
      "type": "function"
    },
    {
      "inputs": [
        {
          "internalType": "uint256",
          "name": "_newRewardRate",
          "type": "uint256"
        }
      ],
      "name": "updateRewardRate",
      "outputs": [],
      "stateMutability": "nonpayable",
      "type": "function"
    },
    {
      "inputs": [
        {
          "internalType": "address",
          "name": "newImplementation",
          "type": "address"
        },
        {
          "internalType": "bytes",
          "name": "data",
          "type": "bytes"
        }
      ],
      "name": "upgradeToAndCall",
      "outputs": [],
      "stateMutability": "payable",
      "type": "function"
    },
    {
      "inputs": [
        {
          "internalType": "address",
          "name": "",
          "type": "address"
        },
        {
          "internalType": "uint256",
          "name": "",
          "type": "uint256"
        }
      ],
      "name": "userStakes",
      "outputs": [
        {
          "internalType": "uint256",
          "name": "amount",
          "type": "uint256"
        },
        {
          "internalType": "uint256",
          "name": "timestamp",
          "type": "uint256"
        },
        {
          "internalType": "uint256",
          "name": "rewardDebt",
          "type": "uint256"
        }
      ],
      "stateMutability": "view",
      "type": "function"
    },
    {
      "inputs": [
        {
          "internalType": "uint256[]",
          "name": "_stakeIds",
          "type": "uint256[]"
        },
        {
          "internalType": "uint256",
          "name": "_totalAmount",
          "type": "uint256"
        }
      ],
      "name": "withdraw",
      "outputs": [],
      "stateMutability": "nonpayable",
      "type": "function"
    }
  ],
  "bytecode": "0x60a06040523073ffffffffffffffffffffffffffffffffffffffff1660809073ffffffffffffffffffffffffffffffffffffffff1681525034801561004357600080fd5b5061005261005760201b60201c565b6101c1565b600061006761015b60201b60201c565b90508060000160089054906101000a900460ff16156100b2576040517ff92ee8a900000000000000000000000000000000000000000000000000000000815260040160405180910390fd5b67ffffffffffffffff80168160000160009054906101000a900467ffffffffffffffff1667ffffffffffffffff16146101585767ffffffffffffffff8160000160006101000a81548167ffffffffffffffff021916908367ffffffffffffffff1602179055507fc7f505b2f371ae2175ee4913f4499e1f2633a7b5936321eed1cdaeb6115181d267ffffffffffffffff60405161014f91906101a6565b60405180910390a15b50565b60007ff0c57e16840df040f15088dc2f81fe391c3923bec73e23a9662efc9c229c6a00905090565b600067ffffffffffffffff82169050919050565b6101a081610183565b82525050565b60006020820190506101bb6000830184610197565b92915050565b608051613a026101ea60003960008181611f3301528181611f8801526121430152613a026000f3fe6080604052600436106101b75760003560e01c80638456cb59116100ec578063b5d5b5fa1161008a578063e30c397811610064578063e30c3978146105b8578063f2fde38b146105e3578063f480ff5b1461060c578063fc89892814610649576101b7565b8063b5d5b5fa14610513578063c4d66de814610552578063e2ab7cf21461057b576101b7565b8063949813b8116100c6578063949813b8146104595780639ef3a26114610496578063a694fc3a146104bf578063ad3cb1cc146104e8576101b7565b80638456cb59146103ee5780638da5cb5b1461040557806391db7b0d14610430576101b7565b80634f1ef286116101595780635c975abb116101335780635c975abb1461036a578063715018a61461039557806372f702f3146103ac57806379ba5097146103d7576101b7565b80634f1ef286146102f857806352d1902d146103145780635997bb371461033f576101b7565b80633b521efe116101955780633b521efe1461024d5780633d6aa5e11461028b5780633f4ba83a146102b65780633fd8b02f146102cd576101b7565b806304238994146101bc57806331a0e67e146101f9578063372500ab14610236575b600080fd5b3480156101c857600080fd5b506101e360048036038101906101de9190612994565b610672565b6040516101f09190612acb565b60405180910390f35b34801561020557600080fd5b50610220600480360381019061021b9190612994565b61072e565b60405161022d9190612afc565b60405180910390f35b34801561024257600080fd5b5061024b610856565b005b34801561025957600080fd5b50610274600480360381019061026f9190612b43565b610a37565b604051610282929190612b83565b60405180910390f35b34801561029757600080fd5b506102a0610b60565b6040516102ad9190612afc565b60405180910390f35b3480156102c257600080fd5b506102cb610b69565b005b3480156102d957600080fd5b506102e2610c14565b6040516102ef9190612afc565b60405180910390f35b610312600480360381019061030d9190612cf2565b610c1a565b005b34801561032057600080fd5b50610329610c39565b6040516103369190612d67565b60405180910390f35b34801561034b57600080fd5b50610354610c6c565b6040516103619190612afc565b60405180910390f35b34801561037657600080fd5b5061037f610c72565b60405161038c9190612d9d565b60405180910390f35b3480156103a157600080fd5b506103aa610c85565b005b3480156103b857600080fd5b506103c1610c99565b6040516103ce9190612e17565b60405180910390f35b3480156103e357600080fd5b506103ec610cbd565b005b3480156103fa57600080fd5b50610403610d4c565b005b34801561041157600080fd5b5061041a610df8565b6040516104279190612e41565b60405180910390f35b34801561043c57600080fd5b5061045760048036038101906104529190612e5c565b610e30565b005b34801561046557600080fd5b50610480600480360381019061047b9190612994565b610e42565b60405161048d9190612afc565b60405180910390f35b3480156104a257600080fd5b506104bd60048036038101906104b89190612e5c565b610e5a565b005b3480156104cb57600080fd5b506104e660048036038101906104e19190612e5c565b610eaf565b005b3480156104f457600080fd5b506104fd6110ed565b60405161050a9190612f08565b60405180910390f35b34801561051f57600080fd5b5061053a60048036038101906105359190612b43565b611126565b60405161054993929190612f2a565b60405180910390f35b34801561055e57600080fd5b5061057960048036038101906105749190612994565b61116d565b005b34801561058757600080fd5b506105a2600480360381019061059d9190612b43565b6113f0565b6040516105af9190612d9d565b60405180910390f35b3480156105c457600080fd5b506105cd6114ff565b6040516105da9190612e41565b60405180910390f35b3480156105ef57600080fd5b5061060a60048036038101906106059190612994565b611537565b005b34801561061857600080fd5b50610633600480360381019061062e9190612994565b6115f3565b6040516106409190612afc565b60405180910390f35b34801561065557600080fd5b50610670600480360381019061066b9190612fc1565b6116d8565b005b6060600360008373ffffffffffffffffffffffffffffffffffffffff1673ffffffffffffffffffffffffffffffffffffffff168152602001908152602001600020805480602002602001604051908101604052809291908181526020016000905b8282101561072357838290600052602060002090600302016040518060600160405290816000820154815260200160018201548152602001600282015481525050815260200190600101906106d3565b505050509050919050565b600080600460008473ffffffffffffffffffffffffffffffffffffffff1673ffffffffffffffffffffffffffffffffffffffff1681526020019081526020016000205490506000600360008573ffffffffffffffffffffffffffffffffffffffff1673ffffffffffffffffffffffffffffffffffffffff168152602001908152602001600020905060005b818054905081101561084b5760008282815481106107da576107d9613021565b5b9060005260206000209060030201905060008160000154111561083d576000816001015442610809919061307f565b9050600061081b836000015483611bdf565b905082600201548161082d919061307f565b8661083891906130b3565b955050505b5080806001019150506107b9565b508192505050919050565b61085e611c6e565b600560009054906101000a900460ff16156108ae576040517f08c379a00000000000000000000000000000000000000000000000000000000081526004016108a590613133565b60405180910390fd5b6108b733611cc5565b6000600460003373ffffffffffffffffffffffffffffffffffffffff1673ffffffffffffffffffffffffffffffffffffffff168152602001908152602001600020549050600064e8d4a510008261090e9190613182565b1161094e576040517f08c379a0000000000000000000000000000000000000000000000000000000008152600401610945906131ff565b60405180910390fd5b6000600460003373ffffffffffffffffffffffffffffffffffffffff1673ffffffffffffffffffffffffffffffffffffffff168152602001908152602001600020819055506109de338260008054906101000a900473ffffffffffffffffffffffffffffffffffffffff1673ffffffffffffffffffffffffffffffffffffffff16611e129092919063ffffffff16565b3373ffffffffffffffffffffffffffffffffffffffff167ffc30cddea38e2bf4d6ea7d3f9ed3b6ad7f176419f4963bd81318067a4aee73fe82604051610a249190612afc565b60405180910390a250610a35611e91565b565b600080600360008573ffffffffffffffffffffffffffffffffffffffff1673ffffffffffffffffffffffffffffffffffffffff168152602001908152602001600020805490508310610abe576040517f08c379a0000000000000000000000000000000000000000000000000000000008152600401610ab59061326b565b60405180910390fd5b6000600360008673ffffffffffffffffffffffffffffffffffffffff1673ffffffffffffffffffffffffffffffffffffffff1681526020019081526020016000208481548110610b1157610b10613021565b5b9060005260206000209060030201604051806060016040529081600082015481526020016001820154815260200160028201548152505090508060000151816020015192509250509250929050565b64e8d4a5100081565b610b71611eaa565b600560009054906101000a900460ff16610bc0576040517f08c379a0000000000000000000000000000000000000000000000000000000008152600401610bb7906132d7565b60405180910390fd5b6000600560006101000a81548160ff0219169083151502179055507f5db9ee0a495bf2e6ff9c91a7834c1ba4fdd244a5e8aa4e537bd38aeae4b073aa33604051610c0a9190612e41565b60405180910390a1565b60015481565b610c22611f31565b610c2b82612017565b610c358282612022565b5050565b6000610c43612141565b7f360894a13ba1a3210667c828492db98dca3e2076cc3735a920a3ca505d382bbc60001b905090565b60025481565b600560009054906101000a900460ff1681565b610c8d611eaa565b610c9760006121c8565b565b60008054906101000a900473ffffffffffffffffffffffffffffffffffffffff1681565b6000610cc7612208565b90508073ffffffffffffffffffffffffffffffffffffffff16610ce86114ff565b73ffffffffffffffffffffffffffffffffffffffff1614610d4057806040517f118cdaa7000000000000000000000000000000000000000000000000000000008152600401610d379190612e41565b60405180910390fd5b610d49816121c8565b50565b610d54611eaa565b600560009054906101000a900460ff1615610da4576040517f08c379a0000000000000000000000000000000000000000000000000000000008152600401610d9b90613343565b60405180910390fd5b6001600560006101000a81548160ff0219169083151502179055507f62e78cea01bee320cd4e420270b5ea74000d11b0c9f74754ebdbfc544b05a25833604051610dee9190612e41565b60405180910390a1565b600080610e03612210565b90508060000160009054906101000a900473ffffffffffffffffffffffffffffffffffffffff1691505090565b610e38611eaa565b8060018190555050565b60046020528060005260406000206000915090505481565b610e62611eaa565b60008111610ea5576040517f08c379a0000000000000000000000000000000000000000000000000000000008152600401610e9c906133d5565b60405180910390fd5b8060028190555050565b610eb7611c6e565b600560009054906101000a900460ff1615610f07576040517f08c379a0000000000000000000000000000000000000000000000000000000008152600401610efe90613133565b60405180910390fd5b60008111610f4a576040517f08c379a0000000000000000000000000000000000000000000000000000000008152600401610f4190613441565b60405180910390fd5b610f5333611cc5565b610fa033308360008054906101000a900473ffffffffffffffffffffffffffffffffffffffff1673ffffffffffffffffffffffffffffffffffffffff16612238909392919063ffffffff16565b600360003373ffffffffffffffffffffffffffffffffffffffff1673ffffffffffffffffffffffffffffffffffffffff16815260200190815260200160002060405180606001604052808381526020014281526020016000815250908060018154018082558091505060019003906000526020600020906003020160009091909190915060008201518160000155602082015181600101556040820151816002015550503373ffffffffffffffffffffffffffffffffffffffff167f1449c6dd7851abc30abf37f57715f492010519147cc2652fbc38202c18a6ee90826001600360003373ffffffffffffffffffffffffffffffffffffffff1673ffffffffffffffffffffffffffffffffffffffff168152602001908152602001600020805490506110cc919061307f565b6040516110da929190612b83565b60405180910390a26110ea611e91565b50565b6040518060400160405280600581526020017f352e302e3000000000000000000000000000000000000000000000000000000081525081565b6003602052816000526040600020818154811061114257600080fd5b9060005260206000209060030201600091509150508060000154908060010154908060020154905083565b60006111776122ba565b905060008160000160089054906101000a900460ff1615905060008260000160009054906101000a900467ffffffffffffffff1690506000808267ffffffffffffffff161480156111c55750825b9050600060018367ffffffffffffffff161480156111fa575060003073ffffffffffffffffffffffffffffffffffffffff163b145b905081158015611208575080155b1561123f576040517ff92ee8a900000000000000000000000000000000000000000000000000000000815260040160405180910390fd5b60018560000160006101000a81548167ffffffffffffffff021916908367ffffffffffffffff160217905550831561128f5760018560000160086101000a81548160ff0219169083151502179055505b600073ffffffffffffffffffffffffffffffffffffffff168673ffffffffffffffffffffffffffffffffffffffff16036112fe576040517f08c379a00000000000000000000000000000000000000000000000000000000081526004016112f5906134ad565b60405180910390fd5b6113066122e2565b61130f336122ec565b611317612300565b61131f612312565b856000806101000a81548173ffffffffffffffffffffffffffffffffffffffff021916908373ffffffffffffffffffffffffffffffffffffffff160217905550601960028190555062093a806001819055506000600560006101000a81548160ff02191690831515021790555083156113e85760008560000160086101000a81548160ff0219169083151502179055507fc7f505b2f371ae2175ee4913f4499e1f2633a7b5936321eed1cdaeb6115181d260016040516113df919061351c565b60405180910390a15b505050505050565b6000600360008473ffffffffffffffffffffffffffffffffffffffff1673ffffffffffffffffffffffffffffffffffffffff16815260200190815260200160002080549050821061144457600090506114f9565b6000600360008573ffffffffffffffffffffffffffffffffffffffff1673ffffffffffffffffffffffffffffffffffffffff168152602001908152602001600020838154811061149757611496613021565b5b906000526020600020906003020160405180606001604052908160008201548152602001600182015481526020016002820154815250509050600081600001511180156114f5575060015481602001516114f191906130b3565b4210155b9150505b92915050565b60008061150a61231c565b90508060000160009054906101000a900473ffffffffffffffffffffffffffffffffffffffff1691505090565b61153f611eaa565b600061154961231c565b9050818160000160006101000a81548173ffffffffffffffffffffffffffffffffffffffff021916908373ffffffffffffffffffffffffffffffffffffffff1602179055508173ffffffffffffffffffffffffffffffffffffffff166115ad610df8565b73ffffffffffffffffffffffffffffffffffffffff167f38d16b8cac22d99fc7c124b9cd0de2d3fa1faef420bfe791d8c362d765e2270060405160405180910390a35050565b6000806000905060005b600360008573ffffffffffffffffffffffffffffffffffffffff1673ffffffffffffffffffffffffffffffffffffffff168152602001908152602001600020805490508110156116ce576000600360008673ffffffffffffffffffffffffffffffffffffffff1673ffffffffffffffffffffffffffffffffffffffff168152602001908152602001600020828154811061169a57611699613021565b5b90600052602060002090600302016000015411156116c15781806116bd90613537565b9250505b80806001019150506115fd565b5080915050919050565b6116e0611c6e565b600560009054906101000a900460ff1615611730576040517f08c379a000000000000000000000000000000000000000000000000000000000815260040161172790613133565b60405180910390fd5b6032838390501115611777576040517f08c379a000000000000000000000000000000000000000000000000000000000815260040161176e906135cb565b60405180910390fd5b600083839050116117bd576040517f08c379a00000000000000000000000000000000000000000000000000000000081526004016117b490613637565b60405180910390fd5b60008111611800576040517f08c379a00000000000000000000000000000000000000000000000000000000081526004016117f7906136a3565b60405180910390fd5b61180933611cc5565b600081905060008484905067ffffffffffffffff81111561182d5761182c612bc7565b5b60405190808252806020026020018201604052801561185b5781602001602082028036833780820191505090505b50905060005b85859050811080156118735750600083115b15611b4157600086868381811061188d5761188c613021565b5b9050602002013590508281815181106118a9576118a8613021565b5b6020026020010151156118f1576040517f08c379a00000000000000000000000000000000000000000000000000000000081526004016118e89061370f565b60405180910390fd5b600183828151811061190657611905613021565b5b602002602001019015159081151581525050600360003373ffffffffffffffffffffffffffffffffffffffff1673ffffffffffffffffffffffffffffffffffffffff16815260200190815260200160002080549050811061199c576040517f08c379a00000000000000000000000000000000000000000000000000000000081526004016119939061326b565b60405180910390fd5b6000600360003373ffffffffffffffffffffffffffffffffffffffff1673ffffffffffffffffffffffffffffffffffffffff16815260200190815260200160002082815481106119ef576119ee613021565b5b906000526020600020906003020190506000816000015411611a46576040517f08c379a0000000000000000000000000000000000000000000000000000000008152600401611a3d9061377b565b60405180910390fd5b6001548160010154611a5891906130b3565b421015611a9a576040517f08c379a0000000000000000000000000000000000000000000000000000000008152600401611a91906137e7565b60405180910390fd5b600081600001548611611aad5785611ab3565b81600001545b9050808260000154611ac5919061307f565b82600001819055508086611ad9919061307f565b95503373ffffffffffffffffffffffffffffffffffffffff167f92ccf450a286a957af52509bc1c9939d1a6a481783e142e41e2499f0bb66ebc68285604051611b23929190612b83565b60405180910390a25050508080611b3990613537565b915050611861565b5060008214611b85576040517f08c379a0000000000000000000000000000000000000000000000000000000008152600401611b7c90613853565b60405180910390fd5b611bd0338460008054906101000a900473ffffffffffffffffffffffffffffffffffffffff1673ffffffffffffffffffffffffffffffffffffffff16611e129092919063ffffffff16565b5050611bda611e91565b505050565b60008064e8d4a5100084611bf39190613873565b90506000606464e8d4a51000600254611c0c9190613873565b611c169190613182565b9050600064e8d4a510006301e13380611c2f9190613873565b858385611c3c9190613873565b611c469190613873565b611c509190613182565b905064e8d4a5100081611c639190613182565b935050505092915050565b6000611c78612344565b90506002816000015403611cb8576040517f3ee5aeb500000000000000000000000000000000000000000000000000000000815260040160405180910390fd5b6002816000018190555050565b6000600360008373ffffffffffffffffffffffffffffffffffffffff1673ffffffffffffffffffffffffffffffffffffffff168152602001908152602001600020905060005b8180549050811015611e0d576000828281548110611d2c57611d2b613021565b5b9060005260206000209060030201905060008160000154118015611d535750806001015442115b15611dff576000816001015442611d6a919061307f565b90506000611d7c836000015483611bdf565b90506000836002015482611d90919061307f565b90506000811115611dfb5780600460008973ffffffffffffffffffffffffffffffffffffffff1673ffffffffffffffffffffffffffffffffffffffff1681526020019081526020016000206000828254611dea91906130b3565b925050819055508184600201819055505b5050505b508080600101915050611d0b565b505050565b611e8c838473ffffffffffffffffffffffffffffffffffffffff1663a9059cbb8585604051602401611e459291906138b5565b604051602081830303815290604052915060e01b6020820180517bffffffffffffffffffffffffffffffffffffffffffffffffffffffff838183161783525050505061236c565b505050565b6000611e9b612344565b90506001816000018190555050565b611eb2612208565b73ffffffffffffffffffffffffffffffffffffffff16611ed0610df8565b73ffffffffffffffffffffffffffffffffffffffff1614611f2f57611ef3612208565b6040517f118cdaa7000000000000000000000000000000000000000000000000000000008152600401611f269190612e41565b60405180910390fd5b565b7f000000000000000000000000000000000000000000000000000000000000000073ffffffffffffffffffffffffffffffffffffffff163073ffffffffffffffffffffffffffffffffffffffff161480611fde57507f000000000000000000000000000000000000000000000000000000000000000073ffffffffffffffffffffffffffffffffffffffff16611fc561240e565b73ffffffffffffffffffffffffffffffffffffffff1614155b15612015576040517fe07c8dba00000000000000000000000000000000000000000000000000000000815260040160405180910390fd5b565b61201f611eaa565b50565b8173ffffffffffffffffffffffffffffffffffffffff166352d1902d6040518163ffffffff1660e01b8152600401602060405180830381865afa92505050801561208a57506040513d601f19601f82011682018060405250810190612087919061390a565b60015b6120cb57816040517f4c9c8ce30000000000000000000000000000000000000000000000000000000081526004016120c29190612e41565b60405180910390fd5b7f360894a13ba1a3210667c828492db98dca3e2076cc3735a920a3ca505d382bbc60001b811461213257806040517faa1d49a40000000000000000000000000000000000000000000000000000000081526004016121299190612d67565b60405180910390fd5b61213c8383612465565b505050565b7f000000000000000000000000000000000000000000000000000000000000000073ffffffffffffffffffffffffffffffffffffffff163073ffffffffffffffffffffffffffffffffffffffff16146121c6576040517fe07c8dba00000000000000000000000000000000000000000000000000000000815260040160405180910390fd5b565b60006121d261231c565b90508060000160006101000a81549073ffffffffffffffffffffffffffffffffffffffff0219169055612204826124d8565b5050565b600033905090565b60007f9016d09d72d40fdae2fd8ceac6b6234c7706214fd39c1cd1e609a0528c199300905090565b6122b4848573ffffffffffffffffffffffffffffffffffffffff166323b872dd86868660405160240161226d93929190613937565b604051602081830303815290604052915060e01b6020820180517bffffffffffffffffffffffffffffffffffffffffffffffffffffffff838183161783525050505061236c565b50505050565b60007ff0c57e16840df040f15088dc2f81fe391c3923bec73e23a9662efc9c229c6a00905090565b6122ea6125af565b565b6122f46125af565b6122fd816125ef565b50565b6123086125af565b612310612675565b565b61231a6125af565b565b60007f237e158222e3e6968b72b9db0d8043aacf074ad9f650f0d1606b4d82ee432c00905090565b60007f9b779b17422d0df92223018b32b4d1fa46e071723d6817e2486d003becc55f00905090565b600080602060008451602086016000885af18061238f576040513d6000823e3d81fd5b3d9250600051915050600082146123aa5760018114156123c6565b60008473ffffffffffffffffffffffffffffffffffffffff163b145b1561240857836040517f5274afe70000000000000000000000000000000000000000000000000000000081526004016123ff9190612e41565b60405180910390fd5b50505050565b600061243c7f360894a13ba1a3210667c828492db98dca3e2076cc3735a920a3ca505d382bbc60001b612696565b60000160009054906101000a900473ffffffffffffffffffffffffffffffffffffffff16905090565b61246e826126a0565b8173ffffffffffffffffffffffffffffffffffffffff167fbc7cd75a20ee27fd9adebab32041f755214dbc6bffa90cc0225b39da2e5c2d3b60405160405180910390a26000815111156124cb576124c5828261276d565b506124d4565b6124d36127f1565b5b5050565b60006124e2612210565b905060008160000160009054906101000a900473ffffffffffffffffffffffffffffffffffffffff169050828260000160006101000a81548173ffffffffffffffffffffffffffffffffffffffff021916908373ffffffffffffffffffffffffffffffffffffffff1602179055508273ffffffffffffffffffffffffffffffffffffffff168173ffffffffffffffffffffffffffffffffffffffff167f8be0079c531659141344cd1fd0a4f28419497f9722a3daafe3b4186f6b6457e060405160405180910390a3505050565b6125b761282e565b6125ed576040517fd7e6bcf800000000000000000000000000000000000000000000000000000000815260040160405180910390fd5b565b6125f76125af565b600073ffffffffffffffffffffffffffffffffffffffff168173ffffffffffffffffffffffffffffffffffffffff16036126695760006040517f1e4fbdf70000000000000000000000000000000000000000000000000000000081526004016126609190612e41565b60405180910390fd5b612672816121c8565b50565b61267d6125af565b6000612687612344565b90506001816000018190555050565b6000819050919050565b60008173ffffffffffffffffffffffffffffffffffffffff163b036126fc57806040517f4c9c8ce30000000000000000000000000000000000000000000000000000000081526004016126f39190612e41565b60405180910390fd5b806127297f360894a13ba1a3210667c828492db98dca3e2076cc3735a920a3ca505d382bbc60001b612696565b60000160006101000a81548173ffffffffffffffffffffffffffffffffffffffff021916908373ffffffffffffffffffffffffffffffffffffffff16021790555050565b60606000808473ffffffffffffffffffffffffffffffffffffffff168460405161279791906139b5565b600060405180830381855af49150503d80600081146127d2576040519150601f19603f3d011682016040523d82523d6000602084013e6127d7565b606091505b50915091506127e785838361284e565b9250505092915050565b600034111561282c576040517fb398979f00000000000000000000000000000000000000000000000000000000815260040160405180910390fd5b565b60006128386122ba565b60000160089054906101000a900460ff16905090565b6060826128635761285e826128dd565b6128d5565b6000825114801561288b575060008473ffffffffffffffffffffffffffffffffffffffff163b145b156128cd57836040517f9996b3150000000000000000000000000000000000000000000000000000000081526004016128c49190612e41565b60405180910390fd5b8190506128d6565b5b9392505050565b6000815111156128f05780518082602001fd5b6040517fd6bda27500000000000000000000000000000000000000000000000000000000815260040160405180910390fd5b6000604051905090565b600080fd5b600080fd5b600073ffffffffffffffffffffffffffffffffffffffff82169050919050565b600061296182612936565b9050919050565b61297181612956565b811461297c57600080fd5b50565b60008135905061298e81612968565b92915050565b6000602082840312156129aa576129a961292c565b5b60006129b88482850161297f565b91505092915050565b600081519050919050565b600082825260208201905092915050565b6000819050602082019050919050565b6000819050919050565b612a00816129ed565b82525050565b606082016000820151612a1c60008501826129f7565b506020820151612a2f60208501826129f7565b506040820151612a4260408501826129f7565b50505050565b6000612a548383612a06565b60608301905092915050565b6000602082019050919050565b6000612a78826129c1565b612a8281856129cc565b9350612a8d836129dd565b8060005b83811015612abe578151612aa58882612a48565b9750612ab083612a60565b925050600181019050612a91565b5085935050505092915050565b60006020820190508181036000830152612ae58184612a6d565b905092915050565b612af6816129ed565b82525050565b6000602082019050612b116000830184612aed565b92915050565b612b20816129ed565b8114612b2b57600080fd5b50565b600081359050612b3d81612b17565b92915050565b60008060408385031215612b5a57612b5961292c565b5b6000612b688582860161297f565b9250506020612b7985828601612b2e565b9150509250929050565b6000604082019050612b986000830185612aed565b612ba56020830184612aed565b9392505050565b600080fd5b600080fd5b6000601f19601f8301169050919050565b7f4e487b7100000000000000000000000000000000000000000000000000000000600052604160045260246000fd5b612bff82612bb6565b810181811067ffffffffffffffff82111715612c1e57612c1d612bc7565b5b80604052505050565b6000612c31612922565b9050612c3d8282612bf6565b919050565b600067ffffffffffffffff821115612c5d57612c5c612bc7565b5b612c6682612bb6565b9050602081019050919050565b82818337600083830152505050565b6000612c95612c9084612c42565b612c27565b905082815260208101848484011115612cb157612cb0612bb1565b5b612cbc848285612c73565b509392505050565b600082601f830112612cd957612cd8612bac565b5b8135612ce9848260208601612c82565b91505092915050565b60008060408385031215612d0957612d0861292c565b5b6000612d178582860161297f565b925050602083013567ffffffffffffffff811115612d3857612d37612931565b5b612d4485828601612cc4565b9150509250929050565b6000819050919050565b612d6181612d4e565b82525050565b6000602082019050612d7c6000830184612d58565b92915050565b60008115159050919050565b612d9781612d82565b82525050565b6000602082019050612db26000830184612d8e565b92915050565b6000819050919050565b6000612ddd612dd8612dd384612936565b612db8565b612936565b9050919050565b6000612def82612dc2565b9050919050565b6000612e0182612de4565b9050919050565b612e1181612df6565b82525050565b6000602082019050612e2c6000830184612e08565b92915050565b612e3b81612956565b82525050565b6000602082019050612e566000830184612e32565b92915050565b600060208284031215612e7257612e7161292c565b5b6000612e8084828501612b2e565b91505092915050565b600081519050919050565b600082825260208201905092915050565b60005b83811015612ec3578082015181840152602081019050612ea8565b60008484015250505050565b6000612eda82612e89565b612ee48185612e94565b9350612ef4818560208601612ea5565b612efd81612bb6565b840191505092915050565b60006020820190508181036000830152612f228184612ecf565b905092915050565b6000606082019050612f3f6000830186612aed565b612f4c6020830185612aed565b612f596040830184612aed565b949350505050565b600080fd5b600080fd5b60008083601f840112612f8157612f80612bac565b5b8235905067ffffffffffffffff811115612f9e57612f9d612f61565b5b602083019150836020820283011115612fba57612fb9612f66565b5b9250929050565b600080600060408486031215612fda57612fd961292c565b5b600084013567ffffffffffffffff811115612ff857612ff7612931565b5b61300486828701612f6b565b9350935050602061301786828701612b2e565b9150509250925092565b7f4e487b7100000000000000000000000000000000000000000000000000000000600052603260045260246000fd5b7f4e487b7100000000000000000000000000000000000000000000000000000000600052601160045260246000fd5b600061308a826129ed565b9150613095836129ed565b92508282039050818111156130ad576130ac613050565b5b92915050565b60006130be826129ed565b91506130c9836129ed565b92508282019050808211156130e1576130e0613050565b5b92915050565b7f436f6e7472616374206973207061757365640000000000000000000000000000600082015250565b600061311d601283612e94565b9150613128826130e7565b602082019050919050565b6000602082019050818103600083015261314c81613110565b9050919050565b7f4e487b7100000000000000000000000000000000000000000000000000000000600052601260045260246000fd5b600061318d826129ed565b9150613198836129ed565b9250826131a8576131a7613153565b5b828204905092915050565b7f4e6f207265776172647320746f20636c61696d00000000000000000000000000600082015250565b60006131e9601383612e94565b91506131f4826131b3565b602082019050919050565b60006020820190508181036000830152613218816131dc565b9050919050565b7f496e76616c6964207374616b6520494400000000000000000000000000000000600082015250565b6000613255601083612e94565b91506132608261321f565b602082019050919050565b6000602082019050818103600083015261328481613248565b9050919050565b7f436f6e7472616374206973206e6f742070617573656400000000000000000000600082015250565b60006132c1601683612e94565b91506132cc8261328b565b602082019050919050565b600060208201905081810360008301526132f0816132b4565b9050919050565b7f436f6e747261637420697320616c726561647920706175736564000000000000600082015250565b600061332d601a83612e94565b9150613338826132f7565b602082019050919050565b6000602082019050818103600083015261335c81613320565b9050919050565b7f5265776172642072617465206d7573742062652067726561746572207468616e60008201527f2030000000000000000000000000000000000000000000000000000000000000602082015250565b60006133bf602283612e94565b91506133ca82613363565b604082019050919050565b600060208201905081810360008301526133ee816133b2565b9050919050565b7f43616e6e6f74207374616b652030000000000000000000000000000000000000600082015250565b600061342b600e83612e94565b9150613436826133f5565b602082019050919050565b6000602082019050818103600083015261345a8161341e565b9050919050565b7f496e76616c6964207374616b696e6720746f6b656e2061646472657373000000600082015250565b6000613497601d83612e94565b91506134a282613461565b602082019050919050565b600060208201905081810360008301526134c68161348a565b9050919050565b6000819050919050565b600067ffffffffffffffff82169050919050565b60006135066135016134fc846134cd565b612db8565b6134d7565b9050919050565b613516816134eb565b82525050565b6000602082019050613531600083018461350d565b92915050565b6000613542826129ed565b91507fffffffffffffffffffffffffffffffffffffffffffffffffffffffffffffffff820361357457613573613050565b5b600182019050919050565b7f42617463682073697a6520746f6f206c61726765000000000000000000000000600082015250565b60006135b5601483612e94565b91506135c08261357f565b602082019050919050565b600060208201905081810360008301526135e4816135a8565b9050919050565b7f4e6f207374616b65204944732070726f76696465640000000000000000000000600082015250565b6000613621601583612e94565b915061362c826135eb565b602082019050919050565b6000602082019050818103600083015261365081613614565b9050919050565b7f43616e6e6f742077697468647261772030000000000000000000000000000000600082015250565b600061368d601183612e94565b915061369882613657565b602082019050919050565b600060208201905081810360008301526136bc81613680565b9050919050565b7f4475706c6963617465207374616b652049440000000000000000000000000000600082015250565b60006136f9601283612e94565b9150613704826136c3565b602082019050919050565b60006020820190508181036000830152613728816136ec565b9050919050565b7f5374616b6520616c72656164792077697468647261776e000000000000000000600082015250565b6000613765601783612e94565b91506137708261372f565b602082019050919050565b6000602082019050818103600083015261379481613758565b9050919050565b7f4c6f636b20706572696f64206e6f7420656e6465640000000000000000000000600082015250565b60006137d1601583612e94565b91506137dc8261379b565b602082019050919050565b60006020820190508181036000830152613800816137c4565b9050919050565b7f496e73756666696369656e74207374616b65642062616c616e63650000000000600082015250565b600061383d601b83612e94565b915061384882613807565b602082019050919050565b6000602082019050818103600083015261386c81613830565b9050919050565b600061387e826129ed565b9150613889836129ed565b9250828202613897816129ed565b915082820484148315176138ae576138ad613050565b5b5092915050565b60006040820190506138ca6000830185612e32565b6138d76020830184612aed565b9392505050565b6138e781612d4e565b81146138f257600080fd5b50565b600081519050613904816138de565b92915050565b6000602082840312156139205761391f61292c565b5b600061392e848285016138f5565b91505092915050565b600060608201905061394c6000830186612e32565b6139596020830185612e32565b6139666040830184612aed565b949350505050565b600081519050919050565b600081905092915050565b600061398f8261396e565b6139998185613979565b93506139a9818560208601612ea5565b80840191505092915050565b60006139c18284613984565b91508190509291505056fea2646970667358221220edc5b08e6c079bd94e7e7f2990ecd37908e8c49dfc381e0e05e6dd9a54857f3b64736f6c634300081c0033",
  "linkReferences": {},
  "deployedLinkReferences": {}
}